{"abi":[{"type":"constructor","inputs":[{"name":"_token","type":"address","internalType":"contract IERC20"}],"stateMutability":"nonpayable"},{"type":"function","name":"DEPOSIT_LIMIT","inputs":[],"outputs":[{"name":"","type":"uint256","internalType":"uint256"}],"stateMutability":"view"},{"type":"function","name":"depositTokensToL2","inputs":[{"name":"from","type":"address","internalType":"address"},{"name":"l2Recipient","type":"address","internalType":"address"},{"name":"amount","type":"uint256","internalType":"uint256"}],"outputs":[],"stateMutability":"nonpayable"},{"type":"function","name":"owner","inputs":[],"outputs":[{"name":"","type":"address","internalType":"address"}],"stateMutability":"view"},{"type":"function","name":"pause","inputs":[],"outputs":[],"stateMutability":"nonpayable"},{"type":"function","name":"paused","inputs":[],"outputs":[{"name":"","type":"bool","internalType":"bool"}],"stateMutability":"view"},{"type":"function","name":"renounceOwnership","inputs":[],"outputs":[],"stateMutability":"nonpayable"},{"type":"function","name":"sendToL1","inputs":[{"name":"v","type":"uint8","internalType":"uint8"},{"name":"r","type":"bytes32","internalType":"bytes32"},{"name":"s","type":"bytes32","internalType":"bytes32"},{"name":"message","type":"bytes","internalType":"bytes"}],"outputs":[],"stateMutability":"nonpayable"},{"type":"function","name":"setSigner","inputs":[{"name":"account","type":"address","internalType":"address"},{"name":"enabled","type":"bool","internalType":"bool"}],"outputs":[],"stateMutability":"nonpayable"},{"type":"function","name":"signers","inputs":[{"name":"account","type":"address","internalType":"address"}],"outputs":[{"name":"isSigner","type":"bool","internalType":"bool"}],"stateMutability":"view"},{"type":"function","name":"token","inputs":[],"outputs":[{"name":"","type":"address","internalType":"contract IERC20"}],"stateMutability":"view"},{"type":"function","name":"transferOwnership","inputs":[{"name":"newOwner","type":"address","internalType":"address"}],"outputs":[],"stateMutability":"nonpayable"},{"type":"function","name":"unpause","inputs":[],"outputs":[],"stateMutability":"nonpayable"},{"type":"function","name":"vault","inputs":[],"outputs":[{"name":"","type":"address","internalType":"contract L1Vault"}],"stateMutability":"view"},{"type":"function","name":"withdrawTokensToL1","inputs":[{"name":"to","type":"address","internalType":"address"},{"name":"amount","type":"uint256","internalType":"uint256"},{"name":"v","type":"uint8","internalType":"uint8"},{"name":"r","type":"bytes32","internalType":"bytes32"},{"name":"s","type":"bytes32","internalType":"bytes32"}],"outputs":[],"stateMutability":"nonpayable"},{"type":"event","name":"Deposit","inputs":[{"name":"from","type":"address","indexed":false,"internalType":"address"},{"name":"to","type":"address","indexed":false,"internalType":"address"},{"name":"amount","type":"uint256","indexed":false,"internalType":"uint256"}],"anonymous":false},{"type":"event","name":"OwnershipTransferred","inputs":[{"name":"previousOwner","type":"address","indexed":true,"internalType":"address"},{"name":"newOwner","type":"address","indexed":true,"internalType":"address"}],"anonymous":false},{"type":"event","name":"Paused","inputs":[{"name":"account","type":"address","indexed":false,"internalType":"address"}],"anonymous":false},{"type":"event","name":"Unpaused","inputs":[{"name":"account","type":"address","indexed":false,"internalType":"address"}],"anonymous":false},{"type":"error","name":"ECDSAInvalidSignature","inputs":[]},{"type":"error","name":"ECDSAInvalidSignatureLength","inputs":[{"name":"length","type":"uint256","internalType":"uint256"}]},{"type":"error","name":"ECDSAInvalidSignatureS","inputs":[{"name":"s","type":"bytes32","internalType":"bytes32"}]},{"type":"error","name":"EnforcedPause","inputs":[]},{"type":"error","name":"ExpectedPause","inputs":[]},{"type":"error","name":"L1BossBridge__CallFailed","inputs":[]},{"type":"error","name":"L1BossBridge__DepositLimitReached","inputs":[]},{"type":"error","name":"L1BossBridge__Unauthorized","inputs":[]},{"type":"error","name":"OwnableInvalidOwner","inputs":[{"name":"owner","type":"address","internalType":"address"}]},{"type":"error","name":"OwnableUnauthorizedAccount","inputs":[{"name":"account","type":"address","internalType":"address"}]},{"type":"error","name":"ReentrancyGuardReentrantCall","inputs":[]},{"type":"error","name":"SafeERC20FailedOperation","inputs":[{"name":"token","type":"address","internalType":"address"}]}],"bytecode":{"object":"0x60c060405269152d02c7e14af680000060025534801561001e57600080fd5b5060405161146838038061146883398101604081905261003d9161018d565b338061006357604051631e4fbdf760e01b81526000600482015260240160405180910390fd5b61006c81610130565b506000805460ff60a01b19169055600180556001600160a01b038116608081905260405161009990610180565b6001600160a01b039091168152602001604051809103906000f0801580156100c5573d6000803e3d6000fd5b506001600160a01b031660a0819052604051631f64e71f60e01b81523060048201526000196024820152631f64e71f90604401600060405180830381600087803b15801561011257600080fd5b505af1158015610126573d6000803e3d6000fd5b50505050506101bd565b600080546001600160a01b038381166001600160a01b0319831681178455604051919092169283917f8be0079c531659141344cd1fd0a4f28419497f9722a3daafe3b4186f6b6457e09190a35050565b6103f38061107583390190565b60006020828403121561019f57600080fd5b81516001600160a01b03811681146101b657600080fd5b9392505050565b60805160a051610e6961020c600039600081816101ef015281816103b8015281816104c901526105b9015260008181610216015281816103f8015281816104f301526105960152610e696000f3fe608060405234801561001057600080fd5b50600436106100ea5760003560e01c80638456cb591161008c578063bfd4be6411610066578063bfd4be64146101c4578063f2fde38b146101d7578063fbfa77cf146101ea578063fc0c546a1461021157600080fd5b80638456cb59146101805780638da5cb5b146101885780638decfa77146101ad57600080fd5b80633f4ba83a116100c85780633f4ba83a1461012a5780635c975abb14610132578063715018a614610155578063736c0d5b1461015d57600080fd5b8063224cfa2b146100ef57806331cb6105146101045780633d0d162814610117575b600080fd5b6101026100fd366004610b0f565b610238565b005b610102610112366004610bc8565b610378565b610102610125366004610c06565b6103ab565b610102610473565b600054600160a01b900460ff165b60405190151581526020015b60405180910390f35b610102610485565b61014061016b366004610c56565b60036020526000908152604090205460ff1681565b610102610497565b6000546001600160a01b03165b6040516001600160a01b03909116815260200161014c565b6101b660025481565b60405190815260200161014c565b6101026101d2366004610c7a565b6104a7565b6101026101e5366004610c56565b61062e565b6101957f000000000000000000000000000000000000000000000000000000000000000081565b6101957f000000000000000000000000000000000000000000000000000000000000000081565b610240610671565b61024861069b565b805160208201207f19457468657265756d205369676e6564204d6573736167653a0a3332000000006000908152601c91909152603c812061028b908686866106c6565b6001600160a01b03811660009081526003602052604090205490915060ff166102c757604051633a7ef8bd60e21b815260040160405180910390fd5b6000806000848060200190518101906102e09190610cdf565b9250925092506000836001600160a01b031683836040516103019190610d75565b60006040518083038185875af1925050503d806000811461033e576040519150601f19603f3d011682016040523d82523d6000602084013e610343565b606091505b505090508061036457604051621322fd60e91b815260040160405180910390fd5b505050505061037260018055565b50505050565b6103806106f4565b6001600160a01b03919091166000908152600360205260409020805460ff1916911515919091179055565b6040516001600160a01b037f000000000000000000000000000000000000000000000000000000000000000081166024830152861660448201526064810185905261046c908490849084907f00000000000000000000000000000000000000000000000000000000000000009060009060840160408051601f19818403018152918152602080830180516001600160e01b03166323b872dd60e01b17905290516104589493929101610d91565b604051602081830303815290604052610238565b5050505050565b61047b6106f4565b610483610721565b565b61048d6106f4565b6104836000610776565b61049f6106f4565b6104836107c6565b6104af61069b565b6002546040516370a0823160e01b81526001600160a01b037f00000000000000000000000000000000000000000000000000000000000000008116600483015283917f0000000000000000000000000000000000000000000000000000000000000000909116906370a0823190602401602060405180830381865afa15801561053c573d6000803e3d6000fd5b505050506040513d601f19601f820116820180604052508101906105609190610ddd565b61056a9190610df6565b1115610589576040516346cb666360e01b815260040160405180910390fd5b6105de6001600160a01b037f000000000000000000000000000000000000000000000000000000000000000016847f000000000000000000000000000000000000000000000000000000000000000084610809565b604080516001600160a01b038086168252841660208201529081018290527f5548c837ab068cf56a2c2479df0882a4922fd203edb7517321831d95078c5f629060600160405180910390a1505050565b6106366106f4565b6001600160a01b03811661066557604051631e4fbdf760e01b8152600060048201526024015b60405180910390fd5b61066e81610776565b50565b60026001540361069457604051633ee5aeb560e01b815260040160405180910390fd5b6002600155565b600054600160a01b900460ff16156104835760405163d93c066560e01b815260040160405180910390fd5b6000806000806106d888888888610863565b9250925092506106e88282610932565b50909695505050505050565b6000546001600160a01b031633146104835760405163118cdaa760e01b815233600482015260240161065c565b6107296109ef565b6000805460ff60a01b191690557f5db9ee0a495bf2e6ff9c91a7834c1ba4fdd244a5e8aa4e537bd38aeae4b073aa335b6040516001600160a01b03909116815260200160405180910390a1565b600080546001600160a01b038381166001600160a01b0319831681178455604051919092169283917f8be0079c531659141344cd1fd0a4f28419497f9722a3daafe3b4186f6b6457e09190a35050565b6107ce61069b565b6000805460ff60a01b1916600160a01b1790557f62e78cea01bee320cd4e420270b5ea74000d11b0c9f74754ebdbfc544b05a2586107593390565b604080516001600160a01b0385811660248301528416604482015260648082018490528251808303909101815260849091019091526020810180516001600160e01b03166323b872dd60e01b179052610372908590610a19565b600080807f7fffffffffffffffffffffffffffffff5d576e7357a4501ddfe92f46681b20a084111561089e5750600091506003905082610928565b604080516000808252602082018084528a905260ff891692820192909252606081018790526080810186905260019060a0016020604051602081039080840390855afa1580156108f2573d6000803e3d6000fd5b5050604051601f1901519150506001600160a01b03811661091e57506000925060019150829050610928565b9250600091508190505b9450945094915050565b600082600381111561094657610946610e1d565b0361094f575050565b600182600381111561096357610963610e1d565b036109815760405163f645eedf60e01b815260040160405180910390fd5b600282600381111561099557610995610e1d565b036109b65760405163fce698f760e01b81526004810182905260240161065c565b60038260038111156109ca576109ca610e1d565b036109eb576040516335e2f38360e21b81526004810182905260240161065c565b5050565b600054600160a01b900460ff1661048357604051638dfc202b60e01b815260040160405180910390fd5b600080602060008451602086016000885af180610a3c576040513d6000823e3d81fd5b50506000513d91508115610a54578060011415610a61565b6001600160a01b0384163b155b1561037257604051635274afe760e01b81526001600160a01b038516600482015260240161065c565b803560ff81168114610a9b57600080fd5b919050565b634e487b7160e01b600052604160045260246000fd5b604051601f8201601f1916810167ffffffffffffffff81118282101715610adf57610adf610aa0565b604052919050565b600067ffffffffffffffff821115610b0157610b01610aa0565b50601f01601f191660200190565b60008060008060808587031215610b2557600080fd5b610b2e85610a8a565b93506020850135925060408501359150606085013567ffffffffffffffff811115610b5857600080fd5b8501601f81018713610b6957600080fd5b8035610b7c610b7782610ae7565b610ab6565b818152886020838501011115610b9157600080fd5b8160208401602083013760006020838301015280935050505092959194509250565b6001600160a01b038116811461066e57600080fd5b60008060408385031215610bdb57600080fd5b8235610be681610bb3565b915060208301358015158114610bfb57600080fd5b809150509250929050565b600080600080600060a08688031215610c1e57600080fd5b8535610c2981610bb3565b945060208601359350610c3e60408701610a8a565b94979396509394606081013594506080013592915050565b600060208284031215610c6857600080fd5b8135610c7381610bb3565b9392505050565b600080600060608486031215610c8f57600080fd5b8335610c9a81610bb3565b92506020840135610caa81610bb3565b929592945050506040919091013590565b60005b83811015610cd6578181015183820152602001610cbe565b50506000910152565b600080600060608486031215610cf457600080fd5b8351610cff81610bb3565b60208501516040860151919450925067ffffffffffffffff811115610d2357600080fd5b8401601f81018613610d3457600080fd5b8051610d42610b7782610ae7565b818152876020838501011115610d5757600080fd5b610d68826020830160208601610cbb565b8093505050509250925092565b60008251610d87818460208701610cbb565b9190910192915050565b60018060a01b038416815260ff831660208201526060604082015260008251806060840152610dc7816080850160208701610cbb565b601f01601f191691909101608001949350505050565b600060208284031215610def57600080fd5b5051919050565b80820180821115610e1757634e487b7160e01b600052601160045260246000fd5b92915050565b634e487b7160e01b600052602160045260246000fdfea2646970667358221220233e5c006a3d6a186270137124b56167be106c5c595114f5fceb798cb2d87de864736f6c63430008140033608060405234801561001057600080fd5b506040516103f33803806103f383398101604081905261002f916100d4565b338061005557604051631e4fbdf760e01b81526000600482015260240160405180910390fd5b61005e81610084565b50600180546001600160a01b0319166001600160a01b0392909216919091179055610104565b600080546001600160a01b038381166001600160a01b0319831681178455604051919092169283917f8be0079c531659141344cd1fd0a4f28419497f9722a3daafe3b4186f6b6457e09190a35050565b6000602082840312156100e657600080fd5b81516001600160a01b03811681146100fd57600080fd5b9392505050565b6102e0806101136000396000f3fe608060405234801561001057600080fd5b50600436106100575760003560e01c80631f64e71f1461005c578063715018a6146100715780638da5cb5b14610079578063f2fde38b146100a2578063fc0c546a146100b5575b600080fd5b61006f61006a36600461023c565b6100c8565b005b61006f61014c565b6000546001600160a01b03165b6040516001600160a01b03909116815260200160405180910390f35b61006f6100b0366004610266565b610160565b600154610086906001600160a01b031681565b6100d06101a3565b60015460405163095ea7b360e01b81526001600160a01b038481166004830152602482018490529091169063095ea7b3906044016020604051808303816000875af1158015610123573d6000803e3d6000fd5b505050506040513d601f19601f820116820180604052508101906101479190610288565b505050565b6101546101a3565b61015e60006101d0565b565b6101686101a3565b6001600160a01b03811661019757604051631e4fbdf760e01b8152600060048201526024015b60405180910390fd5b6101a0816101d0565b50565b6000546001600160a01b0316331461015e5760405163118cdaa760e01b815233600482015260240161018e565b600080546001600160a01b038381166001600160a01b0319831681178455604051919092169283917f8be0079c531659141344cd1fd0a4f28419497f9722a3daafe3b4186f6b6457e09190a35050565b80356001600160a01b038116811461023757600080fd5b919050565b6000806040838503121561024f57600080fd5b61025883610220565b946020939093013593505050565b60006020828403121561027857600080fd5b61028182610220565b9392505050565b60006020828403121561029a57600080fd5b8151801515811461028157600080fdfea264697066735822122013d46977e7459836644ac9941d695efcb4b593f96131c19ed0881d9902df9ab164736f6c63430008140033","linkReferences":{}},"methodIdentifiers":{"DEPOSIT_LIMIT()":"8decfa77","depositTokensToL2(address,address,uint256)":"bfd4be64","owner()":"8da5cb5b","pause()":"8456cb59","paused()":"5c975abb","renounceOwnership()":"715018a6","sendToL1(uint8,bytes32,bytes32,bytes)":"224cfa2b","setSigner(address,bool)":"31cb6105","signers(address)":"736c0d5b","token()":"fc0c546a","transferOwnership(address)":"f2fde38b","unpause()":"3f4ba83a","vault()":"fbfa77cf","withdrawTokensToL1(address,uint256,uint8,bytes32,bytes32)":"3d0d1628"},"id":38}